:020000040800F2
:100000000007012069020008451100083D110008A1
:100010004111000823030008B91100080000000086
:10002000000000000000000000000000491100086E
:100030002703000800000000471100084B110008CA
:10004000830200088302000883020008830200087C
:10005000830200088302000883020008830200086C
:10006000830200088302000883020008830200085C
:10007000830200088302000883020008830200084C
:10008000830200088302000883020008830200083C
:10009000830200088302000883020008830200082C
:1000A000830200088302000883020008830200081C
:1000B000830200088302000883020008830200080C
:1000C00083020008830200088302000883020008FC
:1000D00083020008830200088302000883020008EC
:1000E00083020008830200088302000883020008DC
:1000F00083020008830200088302000883020008CC
:1001000083020008830200088302000883020008BB
:1001100083020008830200088302000883020008AB
:10012000830200088302000883020008830200089B
:10013000830200088302000883020008830200088B
:10014000830200088302000883020008830200087B
:10015000830200088302000883020008830200086B
:10016000830200088302000883020008830200085B
:1001700083020008830200088302000800000000D8
:10018000830200088302000883020008830200083B
:10019000830200088302000883020008830200082B
:1001A000830200088302000883020008830200081B
:1001B000830200088302000883020008830200080B
:1001C000830200088302000800F002F800F03CF807
:1001D0000AA090E8000C82448344AAF10107DA45A2
:1001E00001D100F031F8AFF2090EBAE80F0013F0B8
:1001F000010F18BFFB1A43F001031847EC1600006B
:100200000C170000103A24BF78C878C1FAD85207FA
:1002100024BF30C830C144BF04680C607047000080
:100220000023002400250026103A28BF78C1FBD8FF
:10023000520728BF30C148BF0B6070471FB501F09F
:1002400025FB1FBD10B510BD00F031F81146FFF7BA
:10025000F5FF01F017FB00F04FF803B4FFF7F2FFD2
:1002600003BC00F053F800000948804709480047E4
:10027000FEE7FEE7FEE7FEE7FEE7FEE7FEE7FEE756
:10028000FEE7FEE704480549054A064B70470000B3
:1002900055110008C90100080001012000070120D4
:1002A0000003012000030120704770477047754626
:1002B00000F032F8AE4605006946534620F00700CC
:1002C000854618B020B5FFF7DDFFBDE820404FF0B0
:1002D00000064FF000074FF000084FF0000B21F030
:1002E0000701AC46ACE8C009ACE8C009ACE8C009FD
:1002F000ACE8C0098D46704710B50446AFF30080E6
:100300002046BDE81040FFF7A8BF000001491820B3
:10031000ABBEFEE72600020000487047A0000120A7
:10032000704700BFFEE7704731B5002400F018F9B0
:10033000044600BF00F014F9001B00998842F9D36D
:1003400038BD0000F8B502460B4600210025002408
:10035000002000BFE6E0012606FA01F51E6806EA65
:100360000504AC4273D15E68022E02D05E68122E84
:1003700013D1CF0802F1200656F827004E07F70EDA
:100380000F26BE40B0434F07FF0E1E69BE403043EC
:10039000CF0802F1200646F8270010684F00032618
:1003A000BE40B0431E7906F003064F00BE40304306
:1003B00010605E68012E08D05E68022E05D05E686F
:1003C000112E02D05E68122E13D190684F000326C2
:1003D000BE40B0434F00DE68BE403043906050687E
:1003E00001268E40B0431E79C6F300168E4030437E
:1003F0005060D0684F000326BE40B0434F009E6857
:10040000BE403043D0605E6806F08056B6F1805F33
:10041000A8D100BF00260096444E366846F48046B8
:10042000424F3E603E46366806F48046009600BF66
:1004300000BF3F4E8F0856F827008E07370F0F2654
:10044000BE40B0433B4EB24202D100262EE068E0EF
:10045000394EB24201D1012628E0384EB24201D1D4
:10046000022623E0364EB24201D103261EE0354E6D
:10047000B24201D1042619E0334EB24201D1052621
:1004800014E0324EB24201D106260FE0304EB242A5
:1004900001D107260AE02F4EB24201D1082605E01D
:1004A0002D4EB24201D1092600E00A268F073F0FE8
:1004B000BE4030431E4E8F0846F82700274E306856
:1004C000A0435E6806F48036B6F5803F00D1204335
:1004D000224E3060361D3068A0435E6806F4003658
:1004E000B6F5003F00D120431C4E361D3060361D4E
:1004F0003068A0435E6806F48016B6F5801F00D110
:100500002043164E08363060361D3068A0435E68C2
:1005100006F40016B6F5001F00D120430F4E0C362E
:100520003060491C1029FFF416AFF8BD4438024072
:100530000838014000000240000402400008024068
:10054000000C02400010024000140240001802405B
:10055000001C02400020024000240240003C0140F8
:100560000148006870470000000001200248006850
:10057000401C0149086070470000012010B5084880
:10058000006840F4007006490860032000F08EF80F
:100590000F2000F007F800F045F8002010BD000023
:1005A000003C024070B5044600F012FA4FF47A7134
:1005B000B0FBF1F5284600F0A7FD00222146501EB1
:1005C00000F035F8002070BD4178154A11600178BF
:1005D000F9B1121D41681160017B0907C27A41EA35
:1005E0000261827A41EAC241427B41EA8241827BD6
:1005F00041EA4241C27B41EA0241427A41EA022198
:10060000027A41EA420102781143054A0832116038
:1006100005E00021024A121D1160121D1160704791
:1006200098ED00E008B50020009000BF08BD2DE95E
:10063000F05F80460D461646002701F075F8074624
:1006400039462A46334601F00700C0F1070ABAF1DD
:10065000040F02D94FF0040A01E0C0F1070AD146A5
:1006600000F1040ABAF1070F02D24FF0000A01E0CC
:10067000A0F1030AD4464FF0010A0AFA09FAAAF1D6
:10068000010A0AEA020A0AFA0CFA4FF0010B0BFA05
:100690000CFBABF1010B0BEA030B4AEA0B042146FE
:1006A000404601F02DF8BDE8F09F000000BF00F0CB
:1006B0000702064B19684FF6FF031940044B0B4322
:1006C00043EA0221014B196000BF70470CED00E0C6
:1006D0000000FA0538B5002400BF00200090204833
:1006E000006840F080501E4908600846006800F02D
:1006F0008050009000BF00BF1A48006840F480306E
:1007000018490860FFF72CFF044607E0FFF728FFB1
:10071000001BB0F57A7F01D9032038BD114840682D
:1007200000F48030B0F5803FF0D10E48006840F40E
:1007300000300C490860FFF713FF044607E0FFF79D
:100740000FFF001BB0F57A7F01D90320E5E70548CC
:10075000406800F40030B0F5003FF0D10020DCE745
:10076000403802400070004070B504460D46002637
:100770009548006800F00F00A84271D292480068C6
:1007800020F00F002843904908600846006800F0F8
:100790000F00A84201D0012070BD207800F00200B7
:1007A000022807D18948006820F0F000A1680843BA
:1007B00086490860207800F0010000283BD060687E
:1007C000012807D1814808380068C0F34040A0B92B
:1007D0000120E1E76068022807D17C4808380068FA
:1007E000C0F3406048B90120D6E77848083800686F
:1007F000C0F3400008B90120CEE77448006820F03B
:1008000003006168084371490860FFF7A9FE0646C6
:100810006068012810D108E0FFF7A2FE801B41F2BA
:100820008831884201D90320B6E76848006800F0A3
:100830000C000428F0D1A7E06068022811D108E07C
:10084000FFF78EFE801B41F28831884201D90320D8
:10085000A2E75E48006800F00C000828F0D193E0A1
:1008600010E008E0FFF77CFE801B41F288318842EF
:1008700001D9032090E75548006800F00C000028DB
:10088000F0D181E0207800F00200022807D14F4823
:10089000006820F0F000A16808434C490860207807
:1008A00000F00100002860D06068012807D14748A7
:1008B00008380068C0F34040A0B901206CE76068C8
:1008C000022807D1414808380068C0F3406048B9A1
:1008D000012061E73D4808380068C0F3400008B9CE
:1008E000012059E73948006820F003006168084397
:1008F00036490860FFF734FE06466068012810D1CB
:1009000008E0FFF72DFE801B41F28831884201D9B3
:10091000032041E72D48006800F00C000428F0D1C6
:1009200023E06068022810D108E0FFF719FE801B61
:1009300041F28831884201D903202DE7234800681D
:1009400000F00C000828F0D10FE008E0FFF708FEE7
:10095000801B41F28831884201D903201CE71B48E3
:10096000006800F00C000028F0D11748006820F063
:100970000F002843144908600846006800F00F0083
:10098000A84201D0012007E7207800F004000428E5
:1009900007D10E48006820F4E050E16808430B4995
:1009A0000860207800F00800082808D1074800688F
:1009B00020F46040216940EAC100044908600F202A
:1009C000FFF7F0FD0020E7E6003C02400838024057
:1009D00000B500F019F80949096801F0F001F022AA
:1009E00092FAA2F2B2FA82F2D140054A515CC840B2
:1009F000044908600846006800BD0000083802404D
:100A0000961800080800012070B50021002200237C
:100A10000020274C246804F00C0424B1042C04D0DA
:100A2000082C41D103E0234840E023483EE0204C1D
:100A3000241F246804F03F011D4C241F246804F483
:100A4000800484B11C4CB4FBF1F5194C241F2468BC
:100A500047F6C076344096FAA6F6B6FA86F6F44023
:100A600005FB04F20FE0134CB4FBF1F5104C241F0E
:100A7000246847F6C076344096FAA6F6B6FA86F6AB
:100A8000F44005FB04F20A4C241F246804F44034AB
:100A90004FF4403595FAA5F5B5FA85F5EC40641CA0
:100AA0006300B2FBF3F001E0024800BF00BF70BD7D
:100AB000083802400024F40040787D0138B504462F
:100AC0000025207800F00100002870D0F848006868
:100AD00000F00C0004280DD0F548006800F00C0070
:100AE000082813D1F248001F006800F48000B0F518
:100AF000800F0BD1EE4808380068C0F34040002852
:100B0000E3D06068002852D1012038BD00BFE8481A
:100B10000838006820F48030E54908390860084644
:100B2000006820F4802008600846006820F48030C7
:100B3000086000BFFFF714FD054607E0FFF710FD52
:100B4000401BB0F5FA7F01D90320DEE7D84808380A
:100B50000068C0F340400028F0D100BFD4480838F6
:100B6000006820F48030D249083908606068B0F528
:100B7000803F0AD10846006820F4802008600846BB
:100B8000006840F4803008601FE06068B0F5A02F76
:100B90000ED1C7480838006840F48020C44908399D
:100BA00008600846006840F4803008600DE036E0D8
:100BB000BF480838006820F48020BD490839086023
:100BC0000846006820F48030086000BF606898B173
:100BD000FFF7C6FC054607E0FFF7C2FC401BB0F577
:100BE000FA7F01D9032090E7B14808380068C0F3C4
:100BF00040400028F0D012E0FFF7B2FC054607E0C5
:100C0000FFF7AEFC401BB0F5FA7F01D903207CE76B
:100C1000A74808380068C0F340400028F0D1207889
:100C200000F00200022873D1A148006800F00C0017
:100C300058B19F48006800F00C00082821D19C485A
:100C4000001F006800F48000D8B99948083800688F
:100C5000C0F3400020B1E068012801D0012054E732
:100C600093480838006820F0F800F82292FAA2F2BF
:100C7000B2FA82F22169914008438D49083908602F
:100C800046E0E06850B38A480838006840F0010048
:100C9000874908390860FFF763FC054606E0FFF75F
:100CA0005FFC401B642801D903202EE780480838E8
:100CB0000068C0F340000028F1D07D480838006883
:100CC00020F0F800F82292FAA2F2B2FA82F2216938
:100CD0009140084376490839086019E0744808389B
:100CE000006820F00100724908390860FFF738FCFD
:100CF000054606E0FFF734FC401B642801D90320B9
:100D000003E76B4808380068C0F340000028F1D1C1
:100D1000207800F00800082836D16069D0B1644816
:100D20006C30006840F0010061496C310860FFF7E9
:100D300017FC054606E0FFF713FC401B642801D9A9
:100D40000320E2E65A486C300068C0F340000028F7
:100D5000F1D019E056486C30006820F00100544989
:100D60006C310860FFF7FCFB054606E0FFF7F8FB77
:100D7000401B642801D90320C7E64D486C30006849
:100D8000C0F340000028F1D1207800F004000428CE
:100D900078D100BF0020009045483830006840F00E
:100DA00080504349383108600846006800F08050A0
:100DB000009000BF00BF3F48006840F480703D498C
:100DC0000860FFF7CDFB054606E0FFF7C9FB401BB7
:100DD000642801D9032098E63648006800F4807042
:100DE0000028F2D000BF32486830006820F00100CF
:100DF0002F49683108600846006820F00400086048
:100E00000846006820F00100086000BFFFF7A8FB5B
:100E1000054608E0FFF7A4FB401B41F288318842F9
:100E200001D9032071E6224868300068C0F3400011
:100E30000028EFD100BF1E486830006820F0010094
:100E40001B4968310860A06801280AD1084600687B
:100E500020F0040008600846006840F001000860C7
:100E60001EE0A06805280ED111486830006840F0E7
:100E700004000F49683108600846006840F001002E
:100E800008600DE03BE00A486830006820F004008C
:100E90000749683108600846006820F001000860D2
:100EA00000BFA068C0B1FFF75BFB05460DE0000086
:100EB0000838024000700040FFF752FB401B41F22F
:100EC0008831884201D903201FE650480068C0F3EA
:100ED00040000028F0D012E0FFF742FB054608E092
:100EE000FFF73EFB401B41F28831884201D90320C5
:100EF0000BE646480068C0F340000028F0D1A06926
:100F0000F0B342486838006800F00C00082879D037
:100F1000A06902285AD13D487038006820F08070DE
:100F20003A4970390860FFF71BFB054606E0FFF7FA
:100F300017FB401B642801D90320E6E533487038CD
:100F40000068C0F340600028F1D1206A40F00050F2
:100F500047F6C07292FAA2F2B2FA82F2616A914046
:100F600008430122A16AC2EB51014FF4403292FAC8
:100F7000A2F2B2FA82F291400843E169084300E02C
:100F800042E04FF0706292FAA2F2B2FA82F2E16AA3
:100F9000914008431D496C390860081F006840F003
:100FA0008070091F0860FFF7DBFA054606E0FFF7CF
:100FB000D7FA401B642801D90320A6E513487038EE
:100FC0000068C0F340600028F1D01DE00F48703881
:100FD000006820F080700D4970390860FFF7C0FA92
:100FE000054607E0FFF7BCFA401B642802D903203E
:100FF0008BE507E0054870380068C0F340600028C2
:10100000F0D101E0012080E500207EE5703802404B
:1010100070B504460CB9012070BD94F85D0028B984
:10102000002084F85C00204600F059F8022084F883
:101030005D002068006820F0400021680860E068DA
:10104000B0F5E06F01D9002501E04FF48055E0686C
:10105000B0F5706F05D0E068B0F5E06F01D0002109
:10106000A162206B40B9E068B0F5E06F02D90221BF
:10107000216301E001212163D4E9010108432169D1
:10108000084361690843218B01F400710843E16959
:101090000843216A0843A16A084321680860206B5D
:1010A000022805D12068006840F4006021680860CB
:1010B0000421A06901EA1040616A0843616B08439A
:1010C000E16808432843216848602168E06A0861B4
:1010D00000202066012084F85D0000209CE7704716
:1010E000042808D14FF0E021096941F004014FF0D4
:1010F000E022116107E04FF0E021096921F00401CD
:101100004FF0E0221161704770B504462546681E15
:10111000B0F1807F01D301200FE0681E4FF0E02185
:1011200048610F214FF0FF3000F0EAFA00204FF045
:10113000E021886107200861002070BD00BFFEE744
:1011400000BFFEE770477047704710B5FFF70EFA13
:1011500010BD00001448006840F470001249086097
:101160001248006840F001001049086000200F4953
:10117000083108600D4800680D4908400B490860B7
:101180000C48091D0860081F006820F48020091F12
:101190000860002005490C3108604FF000600249EA
:1011A000803908607047000088ED00E00038024098
:1011B000FFFFF6FE1030002400BFFEE710B5044626
:1011C0002046FFF7B1F810BD08B50021009102E0FC
:1011D0000099491C009100998142F9DB08BD00008B
:1011E00008B500F007F900BF002000904B480068E8
:1011F00040F00100494908600846006800F001001D
:10120000009000BF00BF00BF0020009008460068AB
:1012100040F0020008600846006800F002000090FC
:1012200000BF00BF00BF002000900846006840F0EB
:10123000040008600846006800F00400009000BF49
:1012400000BF00BF002000900846006840F0080082
:1012500008600846006800F00800009000BF00BF6A
:1012600000BF002000900846006840F08000086041
:101270000846006800F08000009000BF00BF00BF7B
:10128000002000900846006840F010000860084602
:10129000006800F01000009000BF00BF00BF0020F9
:1012A00000900846006840F48070086008460068B6
:1012B00000F48070009000BF00BF00BF00200090CD
:1012C0000846006840F0400008600846006800F0EA
:1012D0004000009000BF00BF00BF00200090084603
:1012E000006840F0800008600846006800F0800058
:1012F000009000BF00BF00BF0020009007481430DE
:10130000006840F400500549143108600846006840
:1013100000F40050009000BF00BF08BD303802400C
:10132000816170472DE9F04107460C4615461E467F
:10133000DDF8188000200649886008464660C560D0
:101340000460C0F810803846FEF7FCFFBDE8F0816D
:101350008C0001202DE9F04107460C4615461E463B
:10136000064846600020054988600846C56004605C
:101370003846FEF7E7FFBDE8F08100007800012065
:101380000A0482617047000010B5184818490860C7
:1013900018211748C16100218160416101618162AA
:1013A0000721C1620902C160002101624FF400718E
:1013B0008161002141624FF482700D494860002133
:1013C0000B484163FFF724FE09480068406840F479
:1013D000805007490968486005480068006840F087
:1013E000400003490968086010BD00000034014056
:1013F0001400012030B593B000BF002001902F48A9
:10140000006840F080502D4908600846006800F0F0
:101410008050019000BF00BF00BF0020019028480D
:10142000006840F44040264908600846006800F41F
:101430004040019000BF00BF002401200290000442
:101440000390022008904105099110210A91D821AA
:101450000B9102210C910D9102A8FFF72FFB04467E
:101460000CB100BFFEE7FFF735F904460CB100BF31
:10147000FEE70F200E9002200F90002010904FF4F6
:10148000A0501190129007210EA8FFF76DF90446A5
:101490000CB100BFFEE7FFF79BFA4FF47A71B0FB87
:1014A000F1F52846FFF730FE0420FFF719FE002271
:1014B0001146501EFFF7BBF813B030BD4038024054
:1014C00000700040704710B5FFF758F800F096F82C
:1014D00000F052F810BD000008B5052002230122DB
:1014E000202100901F48FFF71DFF05200223012245
:1014F000402100901B48FFF715FF05200223012221
:10150000042100901748FFF70DFF01231A46082118
:101510001448FFF71FFF0123032219021248FFF7A7
:1015200019FF002303224FF400511048FFF712FF68
:101530000123032204210E48FFF70CFF012303229D
:1015400008210B48FFF706FF012303220421094865
:10155000FFF700FF0123032210210548FFF7FAFEE1
:1015600008BD0000001002400020024000080240B8
:10157000001C0240000002401FB500BF1D4800686B
:1015800020F480301B4908601A487030006820F051
:10159000010018497031086000BF01208DF800007B
:1015A0001548019011208DF8080003208DF80B00DC
:1015B00000208DF80F0001208DF80E0000208DF81E
:1015C0000D008DF801008DF80A008DF809008DF8E6
:1015D0000C006846FEF7F8FF042040F00101054AC0
:1015E000703211600349096841F48031014A116089
:1015F00000BF1FBD24ED00E00000012010B500BFBA
:1016000000BF00BF00BF00BFBFF34F8F00BF00BFD0
:1016100000BF00BF00BF00BFBFF36F8F00BF00BFA0
:1016200000BF00200D4908600D48006840F40030FC
:101630000B49086000BF00BF00BFBFF34F8F00BF62
:1016400000BF00BF00BF00BF00BFBFF36F8F00BF70
:1016500000BF00BF00BF00F005F810BD50EF00E074
:1016600014ED00E010B50023234C236000BF00BF41
:1016700000BFBFF34F8F00BF00BF00BF231F18681C
:10168000C0F34E3100BFC0F3C90200BF43F6E073A0
:1016900003EA41134FF0404404EA82742343174C99
:1016A000236000BF00BF131EA2F10102EED10B1E8A
:1016B000A1F10101E7D100BF00BF00BFBFF34F8F11
:1016C00000BF00BF00BF0C4B703B1B6843F480336E
:1016D000094C703C236000BF00BF00BFBFF34F8FB9
:1016E00000BF00BF00BF00BF00BF00BFBFF36F8FD0
:1016F00000BF00BF00BF10BD84ED00E060EF00E060
:1017000010B5002807DA0A07140E054A00F00F0387
:101710001B1FD45403E00A07130E024A135410BDD2
:1017200018ED00E000E400E002480068C0F3022089
:10173000704700000CED00E010B504460B48FFF7C1
:1017400043FD04210A48FFF71BFE08210848FFF764
:1017500017FE04210748FFF713FE10210448FFF786
:101760000FFE4CF25030FFF72FFD10BDF049020084
:10177000001C024000000240044600BF35482060C3
:1017800000BF3548206000BF00BFFFF79CFEFFF799
:1017900027FDFFF7A1FEFFF795FEC820FEF7C4FD69
:1017A0004FF480712D48FFF7BBFDC820FEF7BCFD4C
:1017B000FFF7EAFD2A48007800F0010048B9284800
:1017C00000F058F828B12748046000BF2448AFF360
:1017D000008024482449086000BF00BF2046FFF76E
:1017E000ABFF6420FFF7EAFC00BF00BF04211F48E5
:1017F000FFF796FD08211D48FFF792FD2046FFF7F1
:101800009BFF00BF00BF08211848FFF789FD042196
:101810001748FFF785FD2046FFF78EFF00BF00BF8A
:1018200004211348FFF77CFD10211048FFF778FDD5
:101830002046FFF781FF00BF00BF10210B48FFF7D4
:101840006FFD04210948FFF76BFD2046FFF774FF89
:1018500000BFCAE7D8180008B018000800200240EE
:101860000C0001201000012004000120001C024097
:1018700000000240016809B10020704701210160A9
:10188000084670470EB56846FFF776FF4FF0407088
:10189000E1EE100A7047000000000102030401029B
:1018A0000304060708090000000000000000000013
:1018B0000000000000000000000000000000000028
:1018C0000000000000000000000000000000000018
:1018D0000000000000000000000000000000000008
:1018E00000000000000000000819000800000120AE
:1018F00014000000040200081C1900081400012054
:10190000EC060000200200080000000000000000BB
:0C1910000024F4000000000000000000B3
:04000005080001C925
:00000001FF
